{
  "_format": "hh-sol-artifact-1",
  "contractName": "NftMinter",
  "sourceName": "contracts/NftMinter.sol",
  "abi": [
    {
      "inputs": [],
      "stateMutability": "nonpayable",
      "type": "constructor"
    },
    {
      "inputs": [
        {
          "internalType": "address",
          "name": "sender",
          "type": "address"
        },
        {
          "internalType": "uint256",
          "name": "tokenId",
          "type": "uint256"
        },
        {
          "internalType": "address",
          "name": "owner",
          "type": "address"
        }
      ],
      "name": "ERC721IncorrectOwner",
      "type": "error"
    },
    {
      "inputs": [
        {
          "internalType": "address",
          "name": "operator",
          "type": "address"
        },
        {
          "internalType": "uint256",
          "name": "tokenId",
          "type": "uint256"
        }
      ],
      "name": "ERC721InsufficientApproval",
      "type": "error"
    },
    {
      "inputs": [
        {
          "internalType": "address",
          "name": "approver",
          "type": "address"
        }
      ],
      "name": "ERC721InvalidApprover",
      "type": "error"
    },
    {
      "inputs": [
        {
          "internalType": "address",
          "name": "operator",
          "type": "address"
        }
      ],
      "name": "ERC721InvalidOperator",
      "type": "error"
    },
    {
      "inputs": [
        {
          "internalType": "address",
          "name": "owner",
          "type": "address"
        }
      ],
      "name": "ERC721InvalidOwner",
      "type": "error"
    },
    {
      "inputs": [
        {
          "internalType": "address",
          "name": "receiver",
          "type": "address"
        }
      ],
      "name": "ERC721InvalidReceiver",
      "type": "error"
    },
    {
      "inputs": [
        {
          "internalType": "address",
          "name": "sender",
          "type": "address"
        }
      ],
      "name": "ERC721InvalidSender",
      "type": "error"
    },
    {
      "inputs": [
        {
          "internalType": "uint256",
          "name": "tokenId",
          "type": "uint256"
        }
      ],
      "name": "ERC721NonexistentToken",
      "type": "error"
    },
    {
      "anonymous": false,
      "inputs": [
        {
          "indexed": true,
          "internalType": "address",
          "name": "owner",
          "type": "address"
        },
        {
          "indexed": true,
          "internalType": "address",
          "name": "approved",
          "type": "address"
        },
        {
          "indexed": true,
          "internalType": "uint256",
          "name": "tokenId",
          "type": "uint256"
        }
      ],
      "name": "Approval",
      "type": "event"
    },
    {
      "anonymous": false,
      "inputs": [
        {
          "indexed": true,
          "internalType": "address",
          "name": "owner",
          "type": "address"
        },
        {
          "indexed": true,
          "internalType": "address",
          "name": "operator",
          "type": "address"
        },
        {
          "indexed": false,
          "internalType": "bool",
          "name": "approved",
          "type": "bool"
        }
      ],
      "name": "ApprovalForAll",
      "type": "event"
    },
    {
      "anonymous": false,
      "inputs": [
        {
          "indexed": true,
          "internalType": "address",
          "name": "from",
          "type": "address"
        },
        {
          "indexed": true,
          "internalType": "address",
          "name": "to",
          "type": "address"
        },
        {
          "indexed": true,
          "internalType": "uint256",
          "name": "tokenId",
          "type": "uint256"
        }
      ],
      "name": "Transfer",
      "type": "event"
    },
    {
      "inputs": [
        {
          "internalType": "uint256",
          "name": "",
          "type": "uint256"
        }
      ],
      "name": "MintedNfts",
      "outputs": [
        {
          "internalType": "address",
          "name": "owner",
          "type": "address"
        },
        {
          "internalType": "uint256",
          "name": "tokenId",
          "type": "uint256"
        },
        {
          "internalType": "string",
          "name": "tokenUri",
          "type": "string"
        }
      ],
      "stateMutability": "view",
      "type": "function"
    },
    {
      "inputs": [
        {
          "internalType": "address",
          "name": "to",
          "type": "address"
        },
        {
          "internalType": "uint256",
          "name": "tokenId",
          "type": "uint256"
        }
      ],
      "name": "approve",
      "outputs": [],
      "stateMutability": "nonpayable",
      "type": "function"
    },
    {
      "inputs": [
        {
          "internalType": "address",
          "name": "owner",
          "type": "address"
        }
      ],
      "name": "balanceOf",
      "outputs": [
        {
          "internalType": "uint256",
          "name": "",
          "type": "uint256"
        }
      ],
      "stateMutability": "view",
      "type": "function"
    },
    {
      "inputs": [
        {
          "internalType": "uint256",
          "name": "tokenId",
          "type": "uint256"
        }
      ],
      "name": "getApproved",
      "outputs": [
        {
          "internalType": "address",
          "name": "",
          "type": "address"
        }
      ],
      "stateMutability": "view",
      "type": "function"
    },
    {
      "inputs": [
        {
          "internalType": "uint256",
          "name": "_id",
          "type": "uint256"
        }
      ],
      "name": "getNft",
      "outputs": [
        {
          "internalType": "address",
          "name": "",
          "type": "address"
        },
        {
          "internalType": "uint256",
          "name": "",
          "type": "uint256"
        },
        {
          "internalType": "string",
          "name": "",
          "type": "string"
        }
      ],
      "stateMutability": "view",
      "type": "function"
    },
    {
      "inputs": [],
      "name": "getTotalNftCount",
      "outputs": [
        {
          "internalType": "uint256",
          "name": "",
          "type": "uint256"
        }
      ],
      "stateMutability": "view",
      "type": "function"
    },
    {
      "inputs": [
        {
          "internalType": "address",
          "name": "owner",
          "type": "address"
        },
        {
          "internalType": "address",
          "name": "operator",
          "type": "address"
        }
      ],
      "name": "isApprovedForAll",
      "outputs": [
        {
          "internalType": "bool",
          "name": "",
          "type": "bool"
        }
      ],
      "stateMutability": "view",
      "type": "function"
    },
    {
      "inputs": [],
      "name": "name",
      "outputs": [
        {
          "internalType": "string",
          "name": "",
          "type": "string"
        }
      ],
      "stateMutability": "view",
      "type": "function"
    },
    {
      "inputs": [],
      "name": "nextTokenId",
      "outputs": [
        {
          "internalType": "uint256",
          "name": "",
          "type": "uint256"
        }
      ],
      "stateMutability": "view",
      "type": "function"
    },
    {
      "inputs": [
        {
          "internalType": "uint256",
          "name": "tokenId",
          "type": "uint256"
        }
      ],
      "name": "ownerOf",
      "outputs": [
        {
          "internalType": "address",
          "name": "",
          "type": "address"
        }
      ],
      "stateMutability": "view",
      "type": "function"
    },
    {
      "inputs": [
        {
          "internalType": "address",
          "name": "_to",
          "type": "address"
        },
        {
          "internalType": "string",
          "name": "_uri",
          "type": "string"
        }
      ],
      "name": "safeMint",
      "outputs": [],
      "stateMutability": "nonpayable",
      "type": "function"
    },
    {
      "inputs": [
        {
          "internalType": "address",
          "name": "from",
          "type": "address"
        },
        {
          "internalType": "address",
          "name": "to",
          "type": "address"
        },
        {
          "internalType": "uint256",
          "name": "tokenId",
          "type": "uint256"
        }
      ],
      "name": "safeTransferFrom",
      "outputs": [],
      "stateMutability": "nonpayable",
      "type": "function"
    },
    {
      "inputs": [
        {
          "internalType": "address",
          "name": "from",
          "type": "address"
        },
        {
          "internalType": "address",
          "name": "to",
          "type": "address"
        },
        {
          "internalType": "uint256",
          "name": "tokenId",
          "type": "uint256"
        },
        {
          "internalType": "bytes",
          "name": "data",
          "type": "bytes"
        }
      ],
      "name": "safeTransferFrom",
      "outputs": [],
      "stateMutability": "nonpayable",
      "type": "function"
    },
    {
      "inputs": [
        {
          "internalType": "address",
          "name": "operator",
          "type": "address"
        },
        {
          "internalType": "bool",
          "name": "approved",
          "type": "bool"
        }
      ],
      "name": "setApprovalForAll",
      "outputs": [],
      "stateMutability": "nonpayable",
      "type": "function"
    },
    {
      "inputs": [
        {
          "internalType": "bytes4",
          "name": "interfaceId",
          "type": "bytes4"
        }
      ],
      "name": "supportsInterface",
      "outputs": [
        {
          "internalType": "bool",
          "name": "",
          "type": "bool"
        }
      ],
      "stateMutability": "view",
      "type": "function"
    },
    {
      "inputs": [],
      "name": "symbol",
      "outputs": [
        {
          "internalType": "string",
          "name": "",
          "type": "string"
        }
      ],
      "stateMutability": "view",
      "type": "function"
    },
    {
      "inputs": [
        {
          "internalType": "uint256",
          "name": "tokenId",
          "type": "uint256"
        }
      ],
      "name": "tokenURI",
      "outputs": [
        {
          "internalType": "string",
          "name": "",
          "type": "string"
        }
      ],
      "stateMutability": "view",
      "type": "function"
    },
    {
      "inputs": [
        {
          "internalType": "address",
          "name": "from",
          "type": "address"
        },
        {
          "internalType": "address",
          "name": "to",
          "type": "address"
        },
        {
          "internalType": "uint256",
          "name": "tokenId",
          "type": "uint256"
        }
      ],
      "name": "transferFrom",
      "outputs": [],
      "stateMutability": "nonpayable",
      "type": "function"
    }
  ],
  "bytecode": "0x608060405234801561001057600080fd5b506040518060400160405280600981526020017f54657374546f6b656e00000000000000000000000000000000000000000000008152506040518060400160405280600281526020017f5454000000000000000000000000000000000000000000000000000000000000815250816000908161008c91906102fc565b50806001908161009c91906102fc565b50505060016006819055506103ce565b600081519050919050565b7f4e487b7100000000000000000000000000000000000000000000000000000000600052604160045260246000fd5b7f4e487b7100000000000000000000000000000000000000000000000000000000600052602260045260246000fd5b6000600282049050600182168061012d57607f821691505b6020821081036101405761013f6100e6565b5b50919050565b60008190508160005260206000209050919050565b60006020601f8301049050919050565b600082821b905092915050565b6000600883026101a87fffffffffffffffffffffffffffffffffffffffffffffffffffffffffffffffff8261016b565b6101b2868361016b565b95508019841693508086168417925050509392505050565b6000819050919050565b6000819050919050565b60006101f96101f46101ef846101ca565b6101d4565b6101ca565b9050919050565b6000819050919050565b610213836101de565b61022761021f82610200565b848454610178565b825550505050565b600090565b61023c61022f565b61024781848461020a565b505050565b5b8181101561026b57610260600082610234565b60018101905061024d565b5050565b601f8211156102b05761028181610146565b61028a8461015b565b81016020851015610299578190505b6102ad6102a58561015b565b83018261024c565b50505b505050565b600082821c905092915050565b60006102d3600019846008026102b5565b1980831691505092915050565b60006102ec83836102c2565b9150826002028217905092915050565b610305826100ac565b67ffffffffffffffff81111561031e5761031d6100b7565b5b6103288254610115565b61033382828561026f565b600060209050601f8311600181146103665760008415610354578287015190505b61035e85826102e0565b8655506103c6565b601f19841661037486610146565b60005b8281101561039c57848901518255600182019150602085019450602081019050610377565b868310156103b957848901516103b5601f8916826102c2565b8355505b6001600288020188555050505b505050505050565b61273e806103dd6000396000f3fe608060405234801561001057600080fd5b50600436106101165760003560e01c806370a08231116100a2578063a22cb46511610071578063a22cb4651461030b578063b88d4fde14610327578063c87b56dd14610343578063d204c45e14610373578063e985e9c51461038f57610116565b806370a082311461028157806375794a3c146102b15780638389757a146102cf57806395d89b41146102ed57610116565b806323b872dd116100e957806323b872dd146101b55780632de7b43c146101d157806341f63bfd1461020357806342842e0e146102355780636352211e1461025157610116565b806301ffc9a71461011b57806306fdde031461014b578063081812fc14610169578063095ea7b314610199575b600080fd5b61013560048036038101906101309190611a89565b6103bf565b6040516101429190611ad1565b60405180910390f35b6101536104a1565b6040516101609190611b7c565b60405180910390f35b610183600480360381019061017e9190611bd4565b610533565b6040516101909190611c42565b60405180910390f35b6101b360048036038101906101ae9190611c89565b61054f565b005b6101cf60048036038101906101ca9190611cc9565b610565565b005b6101eb60048036038101906101e69190611bd4565b610667565b6040516101fa93929190611d2b565b60405180910390f35b61021d60048036038101906102189190611bd4565b610749565b60405161022c93929190611d2b565b60405180910390f35b61024f600480360381019061024a9190611cc9565b6108d5565b005b61026b60048036038101906102669190611bd4565b6108f5565b6040516102789190611c42565b60405180910390f35b61029b60048036038101906102969190611d69565b610907565b6040516102a89190611d96565b60405180910390f35b6102b96109c1565b6040516102c69190611d96565b60405180910390f35b6102d76109c7565b6040516102e49190611d96565b60405180910390f35b6102f56109dd565b6040516103029190611b7c565b60405180910390f35b61032560048036038101906103209190611ddd565b610a6f565b005b610341600480360381019061033c9190611f52565b610a85565b005b61035d60048036038101906103589190611bd4565b610aaa565b60405161036a9190611b7c565b60405180910390f35b61038d60048036038101906103889190612076565b610b13565b005b6103a960048036038101906103a491906120d2565b610c0c565b6040516103b69190611ad1565b60405180910390f35b60007f80ac58cd000000000000000000000000000000000000000000000000000000007bffffffffffffffffffffffffffffffffffffffffffffffffffffffff1916827bffffffffffffffffffffffffffffffffffffffffffffffffffffffff1916148061048a57507f5b5e139f000000000000000000000000000000000000000000000000000000007bffffffffffffffffffffffffffffffffffffffffffffffffffffffff1916827bffffffffffffffffffffffffffffffffffffffffffffffffffffffff1916145b8061049a575061049982610ca0565b5b9050919050565b6060600080546104b090612141565b80601f01602080910402602001604051908101604052809291908181526020018280546104dc90612141565b80156105295780601f106104fe57610100808354040283529160200191610529565b820191906000526020600020905b81548152906001019060200180831161050c57829003601f168201915b5050505050905090565b600061053e82610d0a565b5061054882610d92565b9050919050565b610561828261055c610dcf565b610dd7565b5050565b600073ffffffffffffffffffffffffffffffffffffffff168273ffffffffffffffffffffffffffffffffffffffff16036105d75760006040517f64a0ae920000000000000000000000000000000000000000000000000000000081526004016105ce9190611c42565b60405180910390fd5b60006105eb83836105e6610dcf565b610de9565b90508373ffffffffffffffffffffffffffffffffffffffff168173ffffffffffffffffffffffffffffffffffffffff1614610661578382826040517f64283d7b00000000000000000000000000000000000000000000000000000000815260040161065893929190612172565b60405180910390fd5b50505050565b6007818154811061067757600080fd5b90600052602060002090600302016000915090508060000160009054906101000a900473ffffffffffffffffffffffffffffffffffffffff16908060010154908060020180546106c690612141565b80601f01602080910402602001604051908101604052809291908181526020018280546106f290612141565b801561073f5780601f106107145761010080835404028352916020019161073f565b820191906000526020600020905b81548152906001019060200180831161072257829003601f168201915b5050505050905083565b60008060606007805490508410610795576040517f08c379a000000000000000000000000000000000000000000000000000000000815260040161078c906121f5565b60405180910390fd5b6000600785815481106107ab576107aa612215565b5b90600052602060002090600302016040518060600160405290816000820160009054906101000a900473ffffffffffffffffffffffffffffffffffffffff1673ffffffffffffffffffffffffffffffffffffffff1673ffffffffffffffffffffffffffffffffffffffff1681526020016001820154815260200160028201805461083490612141565b80601f016020809104026020016040519081016040528092919081815260200182805461086090612141565b80156108ad5780601f10610882576101008083540402835291602001916108ad565b820191906000526020600020905b81548152906001019060200180831161089057829003601f168201915b5050505050815250509050806000015181602001518260400151935093509350509193909250565b6108f083838360405180602001604052806000815250610a85565b505050565b600061090082610d0a565b9050919050565b60008073ffffffffffffffffffffffffffffffffffffffff168273ffffffffffffffffffffffffffffffffffffffff160361097a5760006040517f89c62b640000000000000000000000000000000000000000000000000000000081526004016109719190611c42565b60405180910390fd5b600360008373ffffffffffffffffffffffffffffffffffffffff1673ffffffffffffffffffffffffffffffffffffffff168152602001908152602001600020549050919050565b60065481565b600060016006546109d89190612273565b905090565b6060600180546109ec90612141565b80601f0160208091040260200160405190810160405280929190818152602001828054610a1890612141565b8015610a655780601f10610a3a57610100808354040283529160200191610a65565b820191906000526020600020905b815481529060010190602001808311610a4857829003601f168201915b5050505050905090565b610a81610a7a610dcf565b8383611003565b5050565b610a90848484610565565b610aa4610a9b610dcf565b85858585611172565b50505050565b6060610ab582610d0a565b506000610ac0611323565b90506000815111610ae05760405180602001604052806000815250610b0b565b80610aea8461133a565b604051602001610afb9291906122e3565b6040516020818303038152906040525b915050919050565b60006006549050610b248382611408565b600060405180606001604052808573ffffffffffffffffffffffffffffffffffffffff168152602001838152602001848152509050600781908060018154018082558091505060019003906000526020600020906003020160009091909190915060008201518160000160006101000a81548173ffffffffffffffffffffffffffffffffffffffff021916908373ffffffffffffffffffffffffffffffffffffffff160217905550602082015181600101556040820151816002019081610beb91906124b3565b50505060066000815480929190610c0190612585565b919050555050505050565b6000600560008473ffffffffffffffffffffffffffffffffffffffff1673ffffffffffffffffffffffffffffffffffffffff16815260200190815260200160002060008373ffffffffffffffffffffffffffffffffffffffff1673ffffffffffffffffffffffffffffffffffffffff16815260200190815260200160002060009054906101000a900460ff16905092915050565b60007f01ffc9a7000000000000000000000000000000000000000000000000000000007bffffffffffffffffffffffffffffffffffffffffffffffffffffffff1916827bffffffffffffffffffffffffffffffffffffffffffffffffffffffff1916149050919050565b600080610d1683611426565b9050600073ffffffffffffffffffffffffffffffffffffffff168173ffffffffffffffffffffffffffffffffffffffff1603610d8957826040517f7e273289000000000000000000000000000000000000000000000000000000008152600401610d809190611d96565b60405180910390fd5b80915050919050565b60006004600083815260200190815260200160002060009054906101000a900473ffffffffffffffffffffffffffffffffffffffff169050919050565b600033905090565b610de48383836001611463565b505050565b600080610df584611426565b9050600073ffffffffffffffffffffffffffffffffffffffff168373ffffffffffffffffffffffffffffffffffffffff1614610e3757610e36818486611628565b5b600073ffffffffffffffffffffffffffffffffffffffff168173ffffffffffffffffffffffffffffffffffffffff1614610ec857610e79600085600080611463565b6001600360008373ffffffffffffffffffffffffffffffffffffffff1673ffffffffffffffffffffffffffffffffffffffff168152602001908152602001600020600082825403925050819055505b600073ffffffffffffffffffffffffffffffffffffffff168573ffffffffffffffffffffffffffffffffffffffff1614610f4b576001600360008773ffffffffffffffffffffffffffffffffffffffff1673ffffffffffffffffffffffffffffffffffffffff168152602001908152602001600020600082825401925050819055505b846002600086815260200190815260200160002060006101000a81548173ffffffffffffffffffffffffffffffffffffffff021916908373ffffffffffffffffffffffffffffffffffffffff160217905550838573ffffffffffffffffffffffffffffffffffffffff168273ffffffffffffffffffffffffffffffffffffffff167fddf252ad1be2c89b69c2b068fc378daa952ba7f163c4a11628f55a4df523b3ef60405160405180910390a4809150509392505050565b600073ffffffffffffffffffffffffffffffffffffffff168273ffffffffffffffffffffffffffffffffffffffff160361107457816040517f5b08ba1800000000000000000000000000000000000000000000000000000000815260040161106b9190611c42565b60405180910390fd5b80600560008573ffffffffffffffffffffffffffffffffffffffff1673ffffffffffffffffffffffffffffffffffffffff16815260200190815260200160002060008473ffffffffffffffffffffffffffffffffffffffff1673ffffffffffffffffffffffffffffffffffffffff16815260200190815260200160002060006101000a81548160ff0219169083151502179055508173ffffffffffffffffffffffffffffffffffffffff168373ffffffffffffffffffffffffffffffffffffffff167f17307eab39ab6107e8899845ad3d59bd9653f200f220920489ca2b5937696c31836040516111659190611ad1565b60405180910390a3505050565b60008373ffffffffffffffffffffffffffffffffffffffff163b111561131c578273ffffffffffffffffffffffffffffffffffffffff1663150b7a02868685856040518563ffffffff1660e01b81526004016111d19493929190612622565b6020604051808303816000875af192505050801561120d57506040513d601f19601f8201168201806040525081019061120a9190612683565b60015b611291573d806000811461123d576040519150601f19603f3d011682016040523d82523d6000602084013e611242565b606091505b50600081510361128957836040517f64a0ae920000000000000000000000000000000000000000000000000000000081526004016112809190611c42565b60405180910390fd5b805181602001fd5b63150b7a0260e01b7bffffffffffffffffffffffffffffffffffffffffffffffffffffffff1916817bffffffffffffffffffffffffffffffffffffffffffffffffffffffff19161461131a57836040517f64a0ae920000000000000000000000000000000000000000000000000000000081526004016113119190611c42565b60405180910390fd5b505b5050505050565b606060405180602001604052806000815250905090565b606060006001611349846116ec565b01905060008167ffffffffffffffff81111561136857611367611e27565b5b6040519080825280601f01601f19166020018201604052801561139a5781602001600182028036833780820191505090505b509050600082602001820190505b6001156113fd578080600190039150507f3031323334353637383961626364656600000000000000000000000000000000600a86061a8153600a85816113f1576113f06126b0565b5b049450600085036113a8575b819350505050919050565b61142282826040518060200160405280600081525061183f565b5050565b60006002600083815260200190815260200160002060009054906101000a900473ffffffffffffffffffffffffffffffffffffffff169050919050565b808061149c5750600073ffffffffffffffffffffffffffffffffffffffff168273ffffffffffffffffffffffffffffffffffffffff1614155b156115d05760006114ac84610d0a565b9050600073ffffffffffffffffffffffffffffffffffffffff168373ffffffffffffffffffffffffffffffffffffffff161415801561151757508273ffffffffffffffffffffffffffffffffffffffff168173ffffffffffffffffffffffffffffffffffffffff1614155b801561152a57506115288184610c0c565b155b1561156c57826040517fa9fbf51f0000000000000000000000000000000000000000000000000000000081526004016115639190611c42565b60405180910390fd5b81156115ce57838573ffffffffffffffffffffffffffffffffffffffff168273ffffffffffffffffffffffffffffffffffffffff167f8c5be1e5ebec7d5bd14f71427d1e84f3dd0314c0f7b2291e5b200ac8c7c3b92560405160405180910390a45b505b836004600085815260200190815260200160002060006101000a81548173ffffffffffffffffffffffffffffffffffffffff021916908373ffffffffffffffffffffffffffffffffffffffff16021790555050505050565b611633838383611863565b6116e757600073ffffffffffffffffffffffffffffffffffffffff168373ffffffffffffffffffffffffffffffffffffffff16036116a857806040517f7e27328900000000000000000000000000000000000000000000000000000000815260040161169f9190611d96565b60405180910390fd5b81816040517f177e802f0000000000000000000000000000000000000000000000000000000081526004016116de9291906126df565b60405180910390fd5b505050565b600080600090507a184f03e93ff9f4daa797ed6e38ed64bf6a1f010000000000000000831061174a577a184f03e93ff9f4daa797ed6e38ed64bf6a1f01000000000000000083816117405761173f6126b0565b5b0492506040810190505b6d04ee2d6d415b85acef81000000008310611787576d04ee2d6d415b85acef8100000000838161177d5761177c6126b0565b5b0492506020810190505b662386f26fc1000083106117b657662386f26fc1000083816117ac576117ab6126b0565b5b0492506010810190505b6305f5e10083106117df576305f5e10083816117d5576117d46126b0565b5b0492506008810190505b61271083106118045761271083816117fa576117f96126b0565b5b0492506004810190505b60648310611827576064838161181d5761181c6126b0565b5b0492506002810190505b600a8310611836576001810190505b80915050919050565b6118498383611924565b61185e611854610dcf565b6000858585611172565b505050565b60008073ffffffffffffffffffffffffffffffffffffffff168373ffffffffffffffffffffffffffffffffffffffff161415801561191b57508273ffffffffffffffffffffffffffffffffffffffff168473ffffffffffffffffffffffffffffffffffffffff1614806118dc57506118db8484610c0c565b5b8061191a57508273ffffffffffffffffffffffffffffffffffffffff1661190283610d92565b73ffffffffffffffffffffffffffffffffffffffff16145b5b90509392505050565b600073ffffffffffffffffffffffffffffffffffffffff168273ffffffffffffffffffffffffffffffffffffffff16036119965760006040517f64a0ae9200000000000000000000000000000000000000000000000000000000815260040161198d9190611c42565b60405180910390fd5b60006119a483836000610de9565b9050600073ffffffffffffffffffffffffffffffffffffffff168173ffffffffffffffffffffffffffffffffffffffff1614611a185760006040517f73c6ac6e000000000000000000000000000000000000000000000000000000008152600401611a0f9190611c42565b60405180910390fd5b505050565b6000604051905090565b600080fd5b600080fd5b60007fffffffff0000000000000000000000000000000000000000000000000000000082169050919050565b611a6681611a31565b8114611a7157600080fd5b50565b600081359050611a8381611a5d565b92915050565b600060208284031215611a9f57611a9e611a27565b5b6000611aad84828501611a74565b91505092915050565b60008115159050919050565b611acb81611ab6565b82525050565b6000602082019050611ae66000830184611ac2565b92915050565b600081519050919050565b600082825260208201905092915050565b60005b83811015611b26578082015181840152602081019050611b0b565b60008484015250505050565b6000601f19601f8301169050919050565b6000611b4e82611aec565b611b588185611af7565b9350611b68818560208601611b08565b611b7181611b32565b840191505092915050565b60006020820190508181036000830152611b968184611b43565b905092915050565b6000819050919050565b611bb181611b9e565b8114611bbc57600080fd5b50565b600081359050611bce81611ba8565b92915050565b600060208284031215611bea57611be9611a27565b5b6000611bf884828501611bbf565b91505092915050565b600073ffffffffffffffffffffffffffffffffffffffff82169050919050565b6000611c2c82611c01565b9050919050565b611c3c81611c21565b82525050565b6000602082019050611c576000830184611c33565b92915050565b611c6681611c21565b8114611c7157600080fd5b50565b600081359050611c8381611c5d565b92915050565b60008060408385031215611ca057611c9f611a27565b5b6000611cae85828601611c74565b9250506020611cbf85828601611bbf565b9150509250929050565b600080600060608486031215611ce257611ce1611a27565b5b6000611cf086828701611c74565b9350506020611d0186828701611c74565b9250506040611d1286828701611bbf565b9150509250925092565b611d2581611b9e565b82525050565b6000606082019050611d406000830186611c33565b611d4d6020830185611d1c565b8181036040830152611d5f8184611b43565b9050949350505050565b600060208284031215611d7f57611d7e611a27565b5b6000611d8d84828501611c74565b91505092915050565b6000602082019050611dab6000830184611d1c565b92915050565b611dba81611ab6565b8114611dc557600080fd5b50565b600081359050611dd781611db1565b92915050565b60008060408385031215611df457611df3611a27565b5b6000611e0285828601611c74565b9250506020611e1385828601611dc8565b9150509250929050565b600080fd5b600080fd5b7f4e487b7100000000000000000000000000000000000000000000000000000000600052604160045260246000fd5b611e5f82611b32565b810181811067ffffffffffffffff82111715611e7e57611e7d611e27565b5b80604052505050565b6000611e91611a1d565b9050611e9d8282611e56565b919050565b600067ffffffffffffffff821115611ebd57611ebc611e27565b5b611ec682611b32565b9050602081019050919050565b82818337600083830152505050565b6000611ef5611ef084611ea2565b611e87565b905082815260208101848484011115611f1157611f10611e22565b5b611f1c848285611ed3565b509392505050565b600082601f830112611f3957611f38611e1d565b5b8135611f49848260208601611ee2565b91505092915050565b60008060008060808587031215611f6c57611f6b611a27565b5b6000611f7a87828801611c74565b9450506020611f8b87828801611c74565b9350506040611f9c87828801611bbf565b925050606085013567ffffffffffffffff811115611fbd57611fbc611a2c565b5b611fc987828801611f24565b91505092959194509250565b600067ffffffffffffffff821115611ff057611fef611e27565b5b611ff982611b32565b9050602081019050919050565b600061201961201484611fd5565b611e87565b90508281526020810184848401111561203557612034611e22565b5b612040848285611ed3565b509392505050565b600082601f83011261205d5761205c611e1d565b5b813561206d848260208601612006565b91505092915050565b6000806040838503121561208d5761208c611a27565b5b600061209b85828601611c74565b925050602083013567ffffffffffffffff8111156120bc576120bb611a2c565b5b6120c885828601612048565b9150509250929050565b600080604083850312156120e9576120e8611a27565b5b60006120f785828601611c74565b925050602061210885828601611c74565b9150509250929050565b7f4e487b7100000000000000000000000000000000000000000000000000000000600052602260045260246000fd5b6000600282049050600182168061215957607f821691505b60208210810361216c5761216b612112565b5b50919050565b60006060820190506121876000830186611c33565b6121946020830185611d1c565b6121a16040830184611c33565b949350505050565b7f4e465420646f6573206e6f742065786973740000000000000000000000000000600082015250565b60006121df601283611af7565b91506121ea826121a9565b602082019050919050565b6000602082019050818103600083015261220e816121d2565b9050919050565b7f4e487b7100000000000000000000000000000000000000000000000000000000600052603260045260246000fd5b7f4e487b7100000000000000000000000000000000000000000000000000000000600052601160045260246000fd5b600061227e82611b9e565b915061228983611b9e565b92508282039050818111156122a1576122a0612244565b5b92915050565b600081905092915050565b60006122bd82611aec565b6122c781856122a7565b93506122d7818560208601611b08565b80840191505092915050565b60006122ef82856122b2565b91506122fb82846122b2565b91508190509392505050565b60008190508160005260206000209050919050565b60006020601f8301049050919050565b600082821b905092915050565b6000600883026123697fffffffffffffffffffffffffffffffffffffffffffffffffffffffffffffffff8261232c565b612373868361232c565b95508019841693508086168417925050509392505050565b6000819050919050565b60006123b06123ab6123a684611b9e565b61238b565b611b9e565b9050919050565b6000819050919050565b6123ca83612395565b6123de6123d6826123b7565b848454612339565b825550505050565b600090565b6123f36123e6565b6123fe8184846123c1565b505050565b5b81811015612422576124176000826123eb565b600181019050612404565b5050565b601f8211156124675761243881612307565b6124418461231c565b81016020851015612450578190505b61246461245c8561231c565b830182612403565b50505b505050565b600082821c905092915050565b600061248a6000198460080261246c565b1980831691505092915050565b60006124a38383612479565b9150826002028217905092915050565b6124bc82611aec565b67ffffffffffffffff8111156124d5576124d4611e27565b5b6124df8254612141565b6124ea828285612426565b600060209050601f83116001811461251d576000841561250b578287015190505b6125158582612497565b86555061257d565b601f19841661252b86612307565b60005b828110156125535784890151825560018201915060208501945060208101905061252e565b86831015612570578489015161256c601f891682612479565b8355505b6001600288020188555050505b505050505050565b600061259082611b9e565b91507fffffffffffffffffffffffffffffffffffffffffffffffffffffffffffffffff82036125c2576125c1612244565b5b600182019050919050565b600081519050919050565b600082825260208201905092915050565b60006125f4826125cd565b6125fe81856125d8565b935061260e818560208601611b08565b61261781611b32565b840191505092915050565b60006080820190506126376000830187611c33565b6126446020830186611c33565b6126516040830185611d1c565b818103606083015261266381846125e9565b905095945050505050565b60008151905061267d81611a5d565b92915050565b60006020828403121561269957612698611a27565b5b60006126a78482850161266e565b91505092915050565b7f4e487b7100000000000000000000000000000000000000000000000000000000600052601260045260246000fd5b60006040820190506126f46000830185611c33565b6127016020830184611d1c565b939250505056fea2646970667358221220523cc7abda8a5fc75101c8b44265d78715a0bebafc9656917afd73d60749d19964736f6c634300081c0033",
  "linkReferences": {},
  "deployedLinkReferences": {}
}